{
  "_format": "hh-sol-artifact-1",
  "contractName": "ehrm",
  "sourceName": "contracts/ehrm.sol",
  "abi": [
    {
      "inputs": [
        {
          "internalType": "string",
          "name": "t",
          "type": "string"
        }
      ],
      "name": "addFile",
      "outputs": [],
      "stateMutability": "nonpayable",
      "type": "function"
    },
    {
      "inputs": [
        {
          "internalType": "address",
          "name": "t",
          "type": "address"
        }
      ],
      "name": "addaccess",
      "outputs": [],
      "stateMutability": "nonpayable",
      "type": "function"
    },
    {
      "inputs": [],
      "name": "getFiles",
      "outputs": [
        {
          "internalType": "string[]",
          "name": "",
          "type": "string[]"
        }
      ],
      "stateMutability": "view",
      "type": "function"
    },
    {
      "inputs": [
        {
          "internalType": "address",
          "name": "t",
          "type": "address"
        }
      ],
      "name": "getOtherFiles",
      "outputs": [
        {
          "internalType": "string[]",
          "name": "",
          "type": "string[]"
        }
      ],
      "stateMutability": "view",
      "type": "function"
    }
  ],
  "bytecode": "0x608060405234801561001057600080fd5b50610cb3806100206000396000f3fe608060405234801561001057600080fd5b506004361061004c5760003560e01c80632da96d731461005157806390907fe71461006f578063c2bc97911461009f578063eb9b9b64146100bb575b600080fd5b6100596100d7565b60405161006691906106b0565b60405180910390f35b61008960048036038101906100849190610744565b6101ec565b60405161009691906106b0565b60405180910390f35b6100b960048036038101906100b49190610744565b610447565b005b6100d560048036038101906100d091906108a6565b6104ea565b005b60606000803373ffffffffffffffffffffffffffffffffffffffff1673ffffffffffffffffffffffffffffffffffffffff168152602001908152602001600020805480602002602001604051908101604052809291908181526020016000905b828210156101e35783829060005260206000200180546101569061091e565b80601f01602080910402602001604051908101604052809291908181526020018280546101829061091e565b80156101cf5780601f106101a4576101008083540402835291602001916101cf565b820191906000526020600020905b8154815290600101906020018083116101b257829003601f168201915b505050505081526020019060010190610137565b50505050905090565b60606000600160008473ffffffffffffffffffffffffffffffffffffffff1673ffffffffffffffffffffffffffffffffffffffff1681526020019081526020016000208054806020026020016040519081016040528092919081815260200182805480156102af57602002820191906000526020600020905b8160009054906101000a900473ffffffffffffffffffffffffffffffffffffffff1673ffffffffffffffffffffffffffffffffffffffff1681526020019060010190808311610265575b5050505050905060005b8151811015610439573373ffffffffffffffffffffffffffffffffffffffff168282815181106102ec576102eb61094f565b5b602002602001015173ffffffffffffffffffffffffffffffffffffffff1603610426576000808573ffffffffffffffffffffffffffffffffffffffff1673ffffffffffffffffffffffffffffffffffffffff168152602001908152602001600020805480602002602001604051908101604052809291908181526020016000905b8282101561041957838290600052602060002001805461038c9061091e565b80601f01602080910402602001604051908101604052809291908181526020018280546103b89061091e565b80156104055780601f106103da57610100808354040283529160200191610405565b820191906000526020600020905b8154815290600101906020018083116103e857829003601f168201915b50505050508152602001906001019061036d565b5050505092505050610442565b8080610431906109b7565b9150506102b9565b50606080925050505b919050565b600160003373ffffffffffffffffffffffffffffffffffffffff1673ffffffffffffffffffffffffffffffffffffffff168152602001908152602001600020819080600181540180825580915050600190039060005260206000200160009091909190916101000a81548173ffffffffffffffffffffffffffffffffffffffff021916908373ffffffffffffffffffffffffffffffffffffffff16021790555050565b6000803373ffffffffffffffffffffffffffffffffffffffff1673ffffffffffffffffffffffffffffffffffffffff1681526020019081526020016000208190806001815401808255809150506001900390600052602060002001600090919091909150908161055a9190610bab565b5050565b600081519050919050565b600082825260208201905092915050565b6000819050602082019050919050565b600081519050919050565b600082825260208201905092915050565b60005b838110156105c45780820151818401526020810190506105a9565b60008484015250505050565b6000601f19601f8301169050919050565b60006105ec8261058a565b6105f68185610595565b93506106068185602086016105a6565b61060f816105d0565b840191505092915050565b600061062683836105e1565b905092915050565b6000602082019050919050565b60006106468261055e565b6106508185610569565b9350836020820285016106628561057a565b8060005b8581101561069e578484038952815161067f858261061a565b945061068a8361062e565b925060208a01995050600181019050610666565b50829750879550505050505092915050565b600060208201905081810360008301526106ca818461063b565b905092915050565b6000604051905090565b600080fd5b600080fd5b600073ffffffffffffffffffffffffffffffffffffffff82169050919050565b6000610711826106e6565b9050919050565b61072181610706565b811461072c57600080fd5b50565b60008135905061073e81610718565b92915050565b60006020828403121561075a576107596106dc565b5b60006107688482850161072f565b91505092915050565b600080fd5b600080fd5b7f4e487b7100000000000000000000000000000000000000000000000000000000600052604160045260246000fd5b6107b3826105d0565b810181811067ffffffffffffffff821117156107d2576107d161077b565b5b80604052505050565b60006107e56106d2565b90506107f182826107aa565b919050565b600067ffffffffffffffff8211156108115761081061077b565b5b61081a826105d0565b9050602081019050919050565b82818337600083830152505050565b6000610849610844846107f6565b6107db565b90508281526020810184848401111561086557610864610776565b5b610870848285610827565b509392505050565b600082601f83011261088d5761088c610771565b5b813561089d848260208601610836565b91505092915050565b6000602082840312156108bc576108bb6106dc565b5b600082013567ffffffffffffffff8111156108da576108d96106e1565b5b6108e684828501610878565b91505092915050565b7f4e487b7100000000000000000000000000000000000000000000000000000000600052602260045260246000fd5b6000600282049050600182168061093657607f821691505b602082108103610949576109486108ef565b5b50919050565b7f4e487b7100000000000000000000000000000000000000000000000000000000600052603260045260246000fd5b7f4e487b7100000000000000000000000000000000000000000000000000000000600052601160045260246000fd5b6000819050919050565b60006109c2826109ad565b91507fffffffffffffffffffffffffffffffffffffffffffffffffffffffffffffffff82036109f4576109f361097e565b5b600182019050919050565b60008190508160005260206000209050919050565b60006020601f8301049050919050565b600082821b905092915050565b600060088302610a617fffffffffffffffffffffffffffffffffffffffffffffffffffffffffffffffff82610a24565b610a6b8683610a24565b95508019841693508086168417925050509392505050565b6000819050919050565b6000610aa8610aa3610a9e846109ad565b610a83565b6109ad565b9050919050565b6000819050919050565b610ac283610a8d565b610ad6610ace82610aaf565b848454610a31565b825550505050565b600090565b610aeb610ade565b610af6818484610ab9565b505050565b5b81811015610b1a57610b0f600082610ae3565b600181019050610afc565b5050565b601f821115610b5f57610b30816109ff565b610b3984610a14565b81016020851015610b48578190505b610b5c610b5485610a14565b830182610afb565b50505b505050565b600082821c905092915050565b6000610b8260001984600802610b64565b1980831691505092915050565b6000610b9b8383610b71565b9150826002028217905092915050565b610bb48261058a565b67ffffffffffffffff811115610bcd57610bcc61077b565b5b610bd7825461091e565b610be2828285610b1e565b600060209050601f831160018114610c155760008415610c03578287015190505b610c0d8582610b8f565b865550610c75565b601f198416610c23866109ff565b60005b82811015610c4b57848901518255600182019150602085019450602081019050610c26565b86831015610c685784890151610c64601f891682610b71565b8355505b6001600288020188555050505b50505050505056fea2646970667358221220d164546b69223f59ce5b78c5c293f476975e9f10ab8cb8f332181f874e508a7764736f6c63430008110033",
  "linkReferences": {},
  "deployedLinkReferences": {}
}